{
  "contractName": "MedicalRecords",
  "abi": [
    {
      "inputs": [],
      "payable": false,
      "stateMutability": "nonpayable",
      "type": "constructor"
    },
    {
      "constant": true,
      "inputs": [],
      "name": "patientCount",
      "outputs": [
        {
          "internalType": "uint256",
          "name": "",
          "type": "uint256"
        }
      ],
      "payable": false,
      "stateMutability": "view",
      "type": "function"
    },
    {
      "constant": true,
      "inputs": [
        {
          "internalType": "uint256",
          "name": "",
          "type": "uint256"
        }
      ],
      "name": "patients",
      "outputs": [
        {
          "internalType": "uint256",
          "name": "id",
          "type": "uint256"
        },
        {
          "internalType": "uint256",
          "name": "aadharID",
          "type": "uint256"
        },
        {
          "internalType": "string",
          "name": "name",
          "type": "string"
        },
        {
          "internalType": "uint256",
          "name": "age",
          "type": "uint256"
        },
        {
          "internalType": "string",
          "name": "gender",
          "type": "string"
        },
        {
          "internalType": "string",
          "name": "medicalHistory",
          "type": "string"
        }
      ],
      "payable": false,
      "stateMutability": "view",
      "type": "function"
    },
    {
      "constant": false,
      "inputs": [
        {
          "internalType": "uint256",
          "name": "_aadharID",
          "type": "uint256"
        },
        {
          "internalType": "string",
          "name": "_name",
          "type": "string"
        },
        {
          "internalType": "uint256",
          "name": "_age",
          "type": "uint256"
        },
        {
          "internalType": "string",
          "name": "_gender",
          "type": "string"
        },
        {
          "internalType": "string",
          "name": "_medicalHistory",
          "type": "string"
        }
      ],
      "name": "addPatient",
      "outputs": [],
      "payable": false,
      "stateMutability": "nonpayable",
      "type": "function"
    },
    {
      "constant": false,
      "inputs": [
        {
          "internalType": "uint256",
          "name": "_id",
          "type": "uint256"
        }
      ],
      "name": "deletePatient",
      "outputs": [],
      "payable": false,
      "stateMutability": "nonpayable",
      "type": "function"
    },
    {
      "constant": true,
      "inputs": [
        {
          "internalType": "uint256",
          "name": "_aadharID",
          "type": "uint256"
        }
      ],
      "name": "getPatientIdByAadharID",
      "outputs": [
        {
          "internalType": "uint256",
          "name": "",
          "type": "uint256"
        }
      ],
      "payable": false,
      "stateMutability": "view",
      "type": "function"
    },
    {
      "constant": true,
      "inputs": [
        {
          "internalType": "uint256",
          "name": "_id",
          "type": "uint256"
        }
      ],
      "name": "getPatient",
      "outputs": [
        {
          "internalType": "uint256",
          "name": "",
          "type": "uint256"
        },
        {
          "internalType": "string",
          "name": "",
          "type": "string"
        },
        {
          "internalType": "uint256",
          "name": "",
          "type": "uint256"
        },
        {
          "internalType": "string",
          "name": "",
          "type": "string"
        },
        {
          "internalType": "string",
          "name": "",
          "type": "string"
        }
      ],
      "payable": false,
      "stateMutability": "view",
      "type": "function"
    },
    {
      "constant": true,
      "inputs": [],
      "name": "getAllPatients",
      "outputs": [
        {
          "internalType": "uint256[]",
          "name": "",
          "type": "uint256[]"
        }
      ],
      "payable": false,
      "stateMutability": "view",
      "type": "function"
    }
  ],
  "bytecode": "0x608060405260006001553480156200001657600080fd5b50620000906104d26040518060400160405280600781526020016629b430b43130bd60c91b8152506015604051806040016040528060048152602001636d616c6560e01b8152506040518060400160405280600e81526020016d043686f6c657374726f6c2c2042560941b8152506200009660201b60201c565b620001f7565b6001805481018082556040805160c08101825282815260208082018a81528284018a8152606084018a90526080840189905260a0840188905260009586528583529390942082518155935194840194909455905180519193620001029260028501929091019062000152565b5060608201516003820155608082015180516200012a91600484019160209091019062000152565b5060a082015180516200014891600584019160209091019062000152565b5050505050505050565b828054600181600116156101000203166002900490600052602060002090601f016020900481019282601f106200019557805160ff1916838001178555620001c5565b82800160010185558215620001c5579182015b82811115620001c5578251825591602001919060010190620001a8565b50620001d3929150620001d7565b5090565b620001f491905b80821115620001d35760008155600101620001de565b90565b610da580620002076000396000f3fe608060405234801561001057600080fd5b506004361061007d5760003560e01c806393119a831161005b57806393119a8314610268578063a0303c41146103de578063baadeeb1146103f8578063e9d90464146105bb5761007d565b806318a231a91461008257806367e57482146100da5780637d3a6796146100f9575b600080fd5b61008a6105d8565b60408051602080825283518183015283519192839290830191858101910280838360005b838110156100c65781810151838201526020016100ae565b505050509050019250505060405180910390f35b6100f7600480360360208110156100f057600080fd5b503561066c565b005b6101166004803603602081101561010f57600080fd5b5035610716565b60405180868152602001806020018581526020018060200180602001848103845288818151815260200191508051906020019080838360005b8381101561016757818101518382015260200161014f565b50505050905090810190601f1680156101945780820380516001836020036101000a031916815260200191505b50848103835286518152865160209182019188019080838360005b838110156101c75781810151838201526020016101af565b50505050905090810190601f1680156101f45780820380516001836020036101000a031916815260200191505b50848103825285518152855160209182019187019080838360005b8381101561022757818101518382015260200161020f565b50505050905090810190601f1680156102545780820380516001836020036101000a031916815260200191505b509850505050505050505060405180910390f35b6102856004803603602081101561027e57600080fd5b503561095d565b60405180878152602001868152602001806020018581526020018060200180602001848103845288818151815260200191508051906020019080838360005b838110156102dc5781810151838201526020016102c4565b50505050905090810190601f1680156103095780820380516001836020036101000a031916815260200191505b50848103835286518152865160209182019188019080838360005b8381101561033c578181015183820152602001610324565b50505050905090810190601f1680156103695780820380516001836020036101000a031916815260200191505b50848103825285518152855160209182019187019080838360005b8381101561039c578181015183820152602001610384565b50505050905090810190601f1680156103c95780820380516001836020036101000a031916815260200191505b50995050505050505050505060405180910390f35b6103e6610b2c565b60408051918252519081900360200190f35b6100f7600480360360a081101561040e57600080fd5b8135919081019060408101602082013564010000000081111561043057600080fd5b82018360208201111561044257600080fd5b8035906020019184600183028401116401000000008311171561046457600080fd5b91908080601f016020809104026020016040519081016040528093929190818152602001838380828437600092019190915250929584359590949093506040810192506020013590506401000000008111156104bf57600080fd5b8201836020820111156104d157600080fd5b803590602001918460018302840111640100000000831117156104f357600080fd5b91908080601f016020809104026020016040519081016040528093929190818152602001838380828437600092019190915250929594936020810193503591505064010000000081111561054657600080fd5b82018360208201111561055857600080fd5b8035906020019184600183028401116401000000008311171561057a57600080fd5b91908080601f016020809104026020016040519081016040528093929190818152602001838380828437600092019190915250929550610b32945050505050565b6103e6600480360360208110156105d157600080fd5b5035610be8565b606080600154604051908082528060200260200182016040528015610607578160200160208202803883390190505b509050600060015b6001548111610663576000818152602081905260409020541561065b57600081815260208190526040902054835184908490811061064957fe5b60209081029190910101526001909101905b60010161060f565b50909150505b90565b60008111801561067e57506001548111155b6106c5576040805162461bcd60e51b8152602060048201526013602482015272496e76616c69642070617469656e742049442160681b604482015290519081900360640190fd5b600081815260208190526040812081815560018101829055906106eb6002830182610c6a565b60038201600090556004820160006107039190610c6a565b610711600583016000610c6a565b505050565b60006060600060608060008611801561073157506001548611155b610778576040805162461bcd60e51b8152602060048201526013602482015272496e76616c69642070617469656e742049442160681b604482015290519081900360640190fd5b6000868152602081815260409182902060018082015460038301546002808501805488519581161561010002600019011691909104601f8101879004870285018701909752868452919591949093600481019360059091019290918691908301828280156108275780601f106107fc57610100808354040283529160200191610827565b820191906000526020600020905b81548152906001019060200180831161080a57829003601f168201915b5050855460408051602060026001851615610100026000190190941693909304601f8101849004840282018401909252818152959950879450925084019050828280156108b55780601f1061088a576101008083540402835291602001916108b5565b820191906000526020600020905b81548152906001019060200180831161089857829003601f168201915b5050845460408051602060026001851615610100026000190190941693909304601f8101849004840282018401909252818152959750869450925084019050828280156109435780601f1061091857610100808354040283529160200191610943565b820191906000526020600020905b81548152906001019060200180831161092657829003601f168201915b505050505090509450945094509450945091939590929450565b6000602081815291815260409081902080546001808301546002808501805487519481161561010002600019011691909104601f810188900488028401880190965285835292959094919291908301828280156109fb5780601f106109d0576101008083540402835291602001916109fb565b820191906000526020600020905b8154815290600101906020018083116109de57829003601f168201915b50505050600383015460048401805460408051602060026001851615610100026000190190941693909304601f81018490048402820184019092528181529596939593945090830182828015610a925780601f10610a6757610100808354040283529160200191610a92565b820191906000526020600020905b815481529060010190602001808311610a7557829003601f168201915b5050505060058301805460408051602060026001851615610100026000190190941693909304601f8101849004840282018401909252818152949594935090830182828015610b225780601f10610af757610100808354040283529160200191610b22565b820191906000526020600020905b815481529060010190602001808311610b0557829003601f168201915b5050505050905086565b60015481565b6001805481018082556040805160c08101825282815260208082018a81528284018a8152606084018a90526080840189905260a0840188905260009586528583529390942082518155935194840194909455905180519193610b9c92600285019290910190610cb1565b506060820151600382015560808201518051610bc2916004840191602090910190610cb1565b5060a08201518051610bde916005840191602090910190610cb1565b5050505050505050565b600060015b6001548111610c2d57600081815260208190526040902060010154831415610c25576000908152602081905260409020549050610c65565b600101610bed565b5060405162461bcd60e51b8152600401808060200182810382526027815260200180610d4a6027913960400191505060405180910390fd5b919050565b50805460018160011615610100020316600290046000825580601f10610c905750610cae565b601f016020900490600052602060002090810190610cae9190610d2f565b50565b828054600181600116156101000203166002900490600052602060002090601f016020900481019282601f10610cf257805160ff1916838001178555610d1f565b82800160010185558215610d1f579182015b82811115610d1f578251825591602001919060010190610d04565b50610d2b929150610d2f565b5090565b61066991905b80821115610d2b5760008155600101610d3556fe50617469656e74207769746820676976656e20416164686172204944206e6f7420666f756e6421a265627a7a7231582028939ad504927dc8d13cadd6b1d89fa21da10725928fdd6e8dcc44f2786b341d64736f6c63430005100032",
  "source": "pragma solidity ^0.5.16;\r\n\r\ncontract MedicalRecords{\r\n    struct Patient {\r\n               \r\n        uint id;\r\n        uint aadharID;\r\n        string name;\r\n        uint age;\r\n        string gender;\r\n        string medicalHistory;\r\n\r\n    }\r\n\r\n    mapping (uint => Patient) public patients;\r\n    uint public patientCount=0;\r\n     \r\n     constructor() public{\r\n         addPatient(1234, \"Shahbaz\", 21,  \"male\",\"Cholestrol, BP\");\r\n     }\r\n    function addPatient(uint _aadharID,string memory _name, uint _age, string memory _gender, string memory _medicalHistory) public {\r\n        patientCount++;\r\n        patients[patientCount] = Patient(patientCount,_aadharID, _name, _age, _gender, _medicalHistory);\r\n    }\r\n\r\n    function deletePatient(uint _id) public {\r\n        require(_id > 0 && _id <= patientCount, \"Invalid patient ID!\");\r\n        delete patients[_id];\r\n    }\r\n\r\n    function getPatientIdByAadharID(uint _aadharID) public view returns (uint) {\r\n        for (uint i = 1; i <= patientCount; i++) {\r\n            if (patients[i].aadharID == _aadharID) {\r\n                return patients[i].id;\r\n            }\r\n        }\r\n        revert(\"Patient with given Aadhar ID not found!\");\r\n    }\r\n\r\n    function getPatient(uint _id) public view returns (uint,string memory, uint, string memory, string memory) {\r\n        require(_id > 0 && _id <= patientCount, \"Invalid patient ID!\");\r\n        return ( patients[_id].aadharID,patients[_id].name, patients[_id].age, patients[_id].gender, patients[_id].medicalHistory);\r\n    }\r\n\r\n    function getAllPatients() public view returns (uint[] memory) {\r\n        uint[] memory patientIds = new uint[](patientCount);\r\n        uint j = 0;\r\n        for (uint i = 1; i <= patientCount; i++) {\r\n            if (patients[i].id != 0) {\r\n                patientIds[j] = patients[i].id;\r\n                j++;\r\n            }\r\n        }\r\n        return patientIds;\r\n    }\r\n}\r\n",
  "sourcePath": "C:\\Users\\ahmad\\OneDrive\\Desktop\\blockchain_app\\contracts\\MedicalRecords.sol",
  "compiler": {
    "name": "solc",
    "version": "0.5.16+commit.9c3226ce.Emscripten.clang"
  },
  "schemaVersion": "3.4.13",
  "updatedAt": "2023-03-19T12:22:18.721Z",
  "networkType": "ethereum",
  "devdoc": {
    "methods": {}
  },
  "userdoc": {
    "methods": {}
  }
}